:020000040800F2
:1000000000000820C13D0108713A01087F3A01084B
:10001000853A01088B3A0108913A01080000000076
:10002000000000000000000000000000973A0108F6
:10003000A53A010800000000B33A0108C13A0108DE
:10004000113E0108113E0108113E0108113E010850
:10005000113E0108113E0108113E0108113E010840
:10006000113E0108113E0108113E0108B13B010893
:10007000113E0108113E0108113E0108113E010820
:10008000113E0108113E0108113E0108113E010810
:10009000C53B0108113E0108113E0108113E01084F
:1000A000113E0108113E0108113E0108113E0108F0
:1000B000113E0108793C01089D3C0108113E0108F0
:1000C000113E0108113E0108113E0108113E0108D0
:1000D000113E0108E93A0108113E0108393B0108C7
:1000E000113E0108113E0108113E0108113E0108B0
:1000F000113E0108113E0108113E0108113E0108A0
:10010000113E0108113E0108113E0108113E01088F
:10011000113E01084D3B0108113E0108113E010846
:10012000113E0108113E0108653C0108113E01081D
:10013000113E0108113E0108113E0108113E01085F
:10014000D93B0108113E0108113E0108D53A0108CA
:10015000113E0108513C0108113E0108ED3B010828
:10016000113E0108113E0108113E0108113E01082F
:10017000113E0108113E0108113E01080000000077
:10018000113E0108113E0108113E0108113E01080F
:10019000113E0108113E0108113E0108113E0108FF
:1001A0005D3A0108113E0108113E0108113E0108A7
:1001B000113E0108113E0108113E0108113E0108DF
:1001C000113E0108113E0108113E0108113E0108CF
:1001D000113E0108113E0108113E0108113E0108BF
:1001E000113E0108113E0108113E0108113E0108AF
:0801F000113E0108113E010857
:1002000010B5054C237833B9044B13B10448AFF350
:1002100000800123237010BDA00702200000000011
:100220006C6C010808B5034B1BB103490348AFF3DD
:10023000008008BD00000000A40702206C6C0108CB
:10024000034613F8012B002AFBD1181A0138704716
:1002500001F0FF01102A2BDB10F0070F08D010F877
:10026000013B013A8B422DD010F0070F42B3F6D17B
:10027000F0B441EA012141EA014122F007047FF094
:1002800000070023F0E80256083C85EA010586EAEB
:10029000010685FA47F5A3FA87F586FA47F6A5FA27
:1002A00087F68EB9EED1F0BC01F0FF0102F0070233
:1002B00032B110F8013B013A83EA010313B1F8D1DE
:1002C0000020704701387047002D06BF35460338BF
:1002D000073815F0010F07D1013015F4807F02BFF8
:1002E000013015F4C03F0130F0BC0138704700BF49
:1002F00081F0004102E000BF83F0004330B54FEAD7
:1003000041044FEA430594EA050F08BF90EA020F43
:100310001FBF54EA000C55EA020C7FEA645C7FEAD6
:10032000655C00F0E2804FEA5454D4EB5555B8BFF9
:100330006D420CDD2C4480EA020281EA030382EA6A
:10034000000083EA010180EA020281EA0303362DFC
:1003500088BF30BD11F0004F4FEA01314FF4801CCF
:100360004CEA113102D0404261EB410113F0004FE1
:100370004FEA03334CEA133302D0524263EB430398
:1003800094EA050F00F0A780A4F10104D5F1200E36
:100390000DDB02FA0EFC22FA05F2801841F1000191
:1003A00003FA0EF2801843FA05F359410EE0A5F165
:1003B00020050EF1200E012A03FA0EFC28BF4CF096
:1003C000020C43FA05F3C01851EBE37101F000454C
:1003D00007D54FF0000EDCF1000C7EEB00006EEB59
:1003E0000101B1F5801F1BD3B1F5001F0CD34908E3
:1003F0005FEA30004FEA3C0C04F101044FEA44523A
:1004000012F5800F80F09A80BCF1004F08BF5FEAC0
:10041000500C50F1000041EB045141EA050130BDA0
:100420005FEA4C0C404141EB010111F4801FA4F143
:100430000104E9D191F0000F04BF01460020B1FA98
:1004400081F308BF2033A3F10B03B3F120020CDAD0
:100450000C3208DD02F1140CC2F10C0201FA0CF0AE
:1004600021FA02F10CE002F11402D8BFC2F1200C13
:1004700001FA02F120FA0CFCDCBF41EA0C019040C9
:10048000E41AA2BF01EB0451294330BD6FEA040412
:100490001F3C1CDA0C340EDC04F11404C4F12002FD
:1004A00020FA04F001FA02F340EA030021FA04F30F
:1004B00045EA030130BDC4F10C04C4F1200220FA66
:1004C00002F001FA04F340EA0300294630BD21FAA4
:1004D00004F0294630BD94F0000F83F4801306BF6A
:1004E00081F480110134013D4EE77FEA645C18BF5E
:1004F0007FEA655C29D094EA050F08BF90EA020FF5
:1005000005D054EA000C04BF1946104630BD91EAEC
:10051000030F1EBF0021002030BD5FEA545C05D1EF
:100520004000494128BF41F0004130BD14F580042E
:100530003CBF01F5801130BD01F0004545F0FE41A2
:1005400041F470014FF0000030BD7FEA645C1ABFD7
:10055000194610467FEA655C1CBF0B46024650EA0E
:10056000013406BF52EA033591EA030F41F400213A
:1005700030BD00BF90F0000F04BF0021704730B5C0
:100580004FF4806404F132044FF000054FF0000195
:1005900050E700BF90F0000F04BF0021704730B556
:1005A0004FF4806404F1320410F0004548BF40422B
:1005B0004FF000013EE700BF42004FEAE2014FEA80
:1005C00031014FEA02701FBF12F07F4393F07F4F5B
:1005D00081F06051704792F0000F14BF93F07F4F8D
:1005E000704730B54FF4607401F0004521F00041D0
:1005F00020E700BF50EA010208BF704730B54FF056
:1006000000050AE050EA010208BF704730B511F05A
:10061000004502D5404261EB41014FF4806404F192
:1006200032045FEA915C3FF4DCAE4FF003025FEA14
:10063000DC0C18BF03325FEADC0C18BF033202EB9C
:10064000DC02C2F1200300FA03FC20FA02F001FAF6
:1006500003FE40EA0E0021FA02F11444C1E600BF95
:1006600070B54FF0FF0C4CF4E06C1CEA11541DBF48
:100670001CEA135594EA0C0F95EA0C0F00F0DEF813
:100680002C4481EA030621EA4C5123EA4C5350EAF8
:10069000013518BF52EA033541F4801143F4801349
:1006A00038D0A0FB02CE4FF00005E1FB02E506F0DA
:1006B0000042E0FB03E54FF00006E1FB03569CF02F
:1006C000000F18BF4EF0010EA4F1FF04B6F5007F35
:1006D00064F5407404D25FEA4E0E6D4146EB0606A7
:1006E00042EAC62141EA55514FEAC52040EA5E5030
:1006F0004FEACE2EB4F1FD0C88BFBCF5E06F1ED8DA
:10070000BEF1004F08BF5FEA500E50F1000041EB10
:10071000045170BD06F0004646EA010140EA0200BD
:1007200081EA0301B4EB5C04C2BFD4EB0C0541EADF
:10073000045170BD41F480114FF0000E013C00F3F4
:10074000AB8014F1360FDEBF002001F0004170BD18
:10075000C4F10004203C35DA0C341BDC04F1140431
:10076000C4F1200500FA05F320FA04F001FA05F2BD
:1007700040EA020001F0004221F0004110EBD3708A
:1007800021FA04F642EB06015EEA430E08BF20EAB6
:10079000D37070BDC4F10C04C4F1200500FA04F359
:1007A00020FA05F001FA04F240EA020001F00041EB
:1007B00010EBD37041F100015EEA430E08BF20EA5E
:1007C000D37070BDC4F1200500FA05F24EEA020EA6
:1007D00020FA04F301FA05F243EA020321FA04F0D5
:1007E00001F0004121FA04F220EA020000EBD3708C
:1007F0005EEA430E08BF20EAD37070BD94F0000F8C
:100800000FD101F00046400041EB010111F4801FBF
:1008100008BF013CF7D041EA060195F0000F18BF70
:10082000704703F00046520043EB030313F4801FAC
:1008300008BF013DF7D043EA0603704794EA0C0F66
:100840000CEA135518BF95EA0C0F0CD050EA41067C
:1008500018BF52EA4306D1D181EA030101F00041F9
:100860004FF0000070BD50EA410606BF1046194621
:1008700052EA430619D094EA0C0F02D150EA01362D
:1008800013D195EA0C0F05D152EA03361CBF10466E
:1008900019460AD181EA030101F0004141F0FE410D
:1008A00041F470014FF0000070BD41F0FE4141F491
:1008B000780170BD70B54FF0FF0C4CF4E06C1CEA91
:1008C00011541DBF1CEA135594EA0C0F95EA0C0F46
:1008D00000F0A7F8A4EB050481EA030E52EA033501
:1008E0004FEA013100F088804FEA03334FF0805522
:1008F00045EA131343EA12634FEA022245EA11154F
:1009000045EA10654FEA00260EF000419D4208BFFF
:10091000964244F1FD0404F5407402D25B084FEAAC
:100920003202B61A65EB03055B084FEA32024FF458
:1009300080104FF4002CB6EB020E75EB030E22BFB5
:10094000B61A754640EA0C005B084FEA3202B6EB75
:10095000020E75EB030E22BFB61A754640EA5C0024
:100960005B084FEA3202B6EB020E75EB030E22BFB4
:10097000B61A754640EA9C005B084FEA3202B6EBB5
:10098000020E75EB030E22BFB61A754640EADC0074
:1009900055EA060E18D04FEA051545EA16754FEAD6
:1009A00006164FEAC30343EA52734FEAC2025FEAF4
:1009B0001C1CC0D111F4801F0BD141EA00014FF083
:1009C00000004FF0004CB6E711F4801F04BF014354
:1009D0000020B4F1FD0C88BFBCF5E06F3FF6AFAE70
:1009E000B5EB030C04BFB6EB020C5FEA500C50F100
:1009F000000041EB045170BD0EF0004E4EEA113183
:100A000014EB5C04C2BFD4EB0C0541EA045170BD89
:100A100041F480114FF0000E013C90E645EA060ECD
:100A20008DE60CEA135594EA0C0F08BF95EA0C0FFB
:100A30003FF43BAF94EA0C0F0AD150EA01347FF443
:100A400034AF95EA0C0F7FF425AF104619462CE71A
:100A500095EA0C0F06D152EA03353FF4FDAE10467D
:100A6000194622E750EA410618BF52EA43067FF4CE
:100A7000C5AE50EA41047FF40DAF52EA43057FF45E
:100A8000EBAE12E74FF0FF3C06E000BF4FF0010C69
:100A900002E000BF4FF0010C4DF804CD4FEA410CCD
:100AA0007FEA6C5C4FEA430C18BF7FEA6C5C1BD09A
:100AB00001B050EA410C0CBF52EA430C91EA030F1B
:100AC00002BF90EA020F0020704710F1000F91EA78
:100AD000030F58BF994208BF90422CBFD8176FEA46
:100AE000E37040F0010070474FEA410C7FEA6C5C14
:100AF00002D150EA013C07D14FEA430C7FEA6C5C1B
:100B0000D6D152EA033CD3D05DF8040B704700BF46
:100B10008446104662468C461946634600E000BF94
:100B200001B5FFF7B7FF002848BF10F1000F01BD66
:100B30004DF808EDFFF7F4FF0CBF012000205DF831
:100B400008FB00BF4DF808EDFFF7EAFF34BF0120B6
:100B500000205DF808FB00BF4DF808EDFFF7E0FF4F
:100B600094BF012000205DF808FB00BF4DF808EDA0
:100B7000FFF7CEFF94BF012000205DF808FB00BF07
:100B80004DF808EDFFF7C4FF34BF012000205DF8E9
:100B900008FB00BF4FEA410C7FEA6C5C02D150EACF
:100BA000013C0AD14FEA430C7FEA6C5C02D152EA65
:100BB000033C02D14FF0000070474FF00100704736
:100BC0004FEA410212F5001215D211D56FF4787375
:100BD000B3EB625212D94FEAC12343F0004343EA18
:100BE000505311F0004F23FA02F018BF40427047F3
:100BF0004FF00000704750EA013005D111F000407D
:100C000008BF6FF0004070474FF00000704700BF12
:100C100053B94AB9002908BF00281CBF4FF0FF3163
:100C20004FF0FF3000F07AB9ADF1080C6DE904CE59
:100C300000F006F8DDF804E0DDE9022304B07047B7
:100C40002DE9F0478C460D460446089E002B51D1F5
:100C50008A4217466DD9B2FA82FEBEF1000F0BD060
:100C6000CEF1200C01FA0EF520FA0CFC02FA0EF778
:100C70004CEA050C00FA0EF44FEA174A250CBCFBAF
:100C8000FAF81FFA87F90AFB18CC45EA0C4508FB6D
:100C900009F3AB420AD9ED1908F1FF3280F0238144
:100CA000AB4240F22081A8F102083D44ED1AA4B203
:100CB000B5FBFAF00AFB105544EA054400FB09F9BC
:100CC000A14509D9E41900F1FF3380F00A81A1455B
:100CD00040F2078102383C44A4EB090440EA084092
:100CE0000021002E61D024FA0EF4002334607360DA
:100CF000BDE8F0878B4207D9002E54D0002186E84A
:100D000021000846BDE8F087B3FA83F1002940F0DE
:100D10008E80AB4202D3824200F2FA80841A65EBE5
:100D200003050120AC46002E3FD086E81010BDE838
:100D3000F08712B90127B7FBF2F7B7FA87FEBEF1C9
:100D4000000F34D1EB1B3A0C1FFA87FC0121B3FBD7
:100D5000F2F8250C02FB183345EA03450CFB08F3B7
:100D6000AB4207D9ED1908F1FF3002D2AB4200F2D5
:100D7000D1808046ED1AA3B2B5FBF2F002FB10550C
:100D800043EA05440CFB00FCA44507D9E41900F133
:100D9000FF3302D2A44500F2B8801846A4EB0C043D
:100DA00040EA08409DE731463046BDE8F087CEF185
:100DB000200405FA0EF307FA0EF720FA04F83A0CAD
:100DC00025FA04F448EA0308B4FBF2F14FEA1845A7
:100DD00002FB11441FFA87FC45EA044501FB0CF3B2
:100DE000AB4200FA0EF409D9ED1901F1FF3080F0A1
:100DF0008A80AB4240F2878002393D44EB1A1FFAE9
:100E000088F5B3FBF2F002FB103345EA034500FB23
:100E10000CF3AB4207D9ED1900F1FF386FD2AB42AA
:100E20006DD902383D44EB1A40EA01418FE7C1F128
:100E3000200722FA07F88B4005FA01F448EA030379
:100E400020FA07FE4FEA134CFD404EEA040EB5FBB4
:100E5000FCF94FEA1E440CFB19551FFA83F844EACB
:100E6000054509FB08F4AC4202FA01F200FA01FA66
:100E700008D9ED1809F1FF3043D2AC4241D9A9F1AC
:100E800002091D442D1B1FFA8EFEB5FBFCF00CFB66
:100E900010554EEA054400FB08F8A04507D9E418B0
:100EA00000F1FF3529D2A04527D902381C4440EA79
:100EB0000940A4EB0804A0FB02894C45C6464D46F8
:100EC00015D312D056B1BAEB0E0364EB050404FA45
:100ED00007F7CB401F43CC40376074600021BDE86A
:100EE000F0871846F8E69046E0E6C245EAD2B8EB4D
:100EF000020E69EB03050138E4E72846D7E74046D0
:100F000091E78146BEE7014678E702383C4445E771
:100F1000084608E7A8F102083D442BE7704700BFE8
:100F200080B500AF032000F073FE002000F006F84B
:100F300012F046FD0023184680BD000080B582B047
:100F400000AF7860124B1A68124B1B7819464FF4A9
:100F50007A73B3FBF1F3B2FBF3F3184600F09BFE98
:100F60000346002B01D001230EE07B680F2B0AD82B
:100F7000002279684FF0FF3000F055FE064A7B688A
:100F80001360002300E0012318460837BD4680BDEA
:100F900028010220040002200000022080B400AFDB
:100FA000064B1B781A46064B1B681344044A136011
:100FB00000BFBD465DF8047B704700BF04000220FF
:100FC0002C09022080B400AF034B1B681846BD46B5
:100FD0005DF8047B704700BF2C09022080B584B007
:100FE00000AF7860FFF7EEFFB8607B68FB60FB68DE
:100FF000B3F1FF3F05D0094B1B781A46FB68134439
:10100000FB6000BFFFF7DEFF0246BB68D21AFB6839
:101010009A42F7D300BF1037BD4680BD04000220BE
:1010200080B584B000AF78600023FB607B68002B44
:1010300001D10123ECE07B6893F82030DBB2002B78
:1010400002D178680CF01CFE7B681B687A68126815
:10105000126822F002021A60FFF7B4FFF86012E093
:10106000FFF7B0FF0246FB68D31A0A2B0BD97B6847
:101070005B6A43F400327B685A627B68052283F81E
:1010800020200123C4E07B681B685B6803F0020337
:10109000002BE5D17B681B687A681268126842F001
:1010A00001021A60FFF78EFFF86012E0FFF78AFF77
:1010B0000246FB68D31A0A2B0BD97B685B6A43F4A0
:1010C00000327B685A627B68052283F82020012366
:1010D0009EE07B681B685B6803F00103002BE5D092
:1010E0007B681B7E012B08D17B681B687A681268BD
:1010F000126842F080021A6007E07B681B687A6819
:101100001268126822F080021A607B685B7E012BF5
:1011100008D17B681B687A681268126842F0400246
:101120001A6007E07B681B687A681268126822F010
:1011300040021A607B689B7E012B08D17B681B688C
:101140007A681268126842F020021A6007E07B6831
:101150001B687A681268126822F020021A607B68A5
:10116000DB7E012B08D17B681B687A6812681268E5
:1011700022F010021A6007E07B681B687A68126828
:10118000126842F010021A607B681B7F012B08D1A5
:101190007B681B687A681268126842F008021A605D
:1011A00007E07B681B687A681268126822F0080200
:1011B0001A607B685B7F012B08D17B681B687A68AB
:1011C0001268126842F004021A6007E07B681B682C
:1011D0007A681268126822F004021A607B681B6841
:1011E0007A6891687A68D26811437A681269114303
:1011F0007A68526911437A685268013A0A43DA619F
:101200007B6800225A627B68012283F82020002339
:1012100018461037BD4680BD80B582B000AF7860FB
:101220007B68002B01D1012315E0786800F04CF9B0
:1012300078680CF0B3FD7B681B687A6812681268E6
:1012400042F400421A607B6800225A627B680022E6
:1012500083F82020002318460837BD4680BD0000D3
:1012600080B485B000AF786039600023BB607B68D4
:101270001B68FB607B6893F82030DBB2012B06D043
:101280007B6893F82030DBB2022B40F0C5807B688E
:101290001B68684A934201D0674BFB60FB68D3F838
:1012A000003243F00102FB68C3F80022FB68624A87
:1012B000934211D1FB68D3F8003223F47C52FB68CF
:1012C000C3F80022FB68D3F800223B685B6A1B026C
:1012D0001A43FB68C3F800223B685B69012202FAEB
:1012E00003F3BB60FB68D3F81C22BB68DB431A40E6
:1012F000FB68C3F81C223B68DB69002B23D1FB6829
:10130000D3F80C22BB68DB431A40FB68C3F80C22FD
:101310003B685A693B68DB6819043B685B689BB2B1
:101320001943FB68483243F832103B685B693A68FE
:10133000926811043A68126892B20A43F968483315
:10134000DB000B445A603B68DB69012B22D1FB6850
:10135000D3F80C22BB681A43FB68C3F80C223B6825
:101360005A693B681B6819043B685B689BB2194368
:10137000FB68483243F832103B685B693A68926810
:1013800011043A68D26892B20A43F9684833DB0024
:101390000B445A603B689B69002B09D1FB68D3F86A
:1013A0000422BB68DB431A40FB68C3F8042207E051
:1013B000FB68D3F80422BB681A43FB68C3F8042215
:1013C0003B681B69002B09D1FB68D3F81422BB686A
:1013D000DB431A40FB68C3F8142207E0FB68D3F82C
:1013E0001422BB681A43FB68C3F814223B681B6ACB
:1013F000012B07D1FB68D3F81C22BB681A43FB689A
:10140000C3F81C22FB68D3F8003223F00102FB680A
:10141000C3F80022002306E07B685B6A43F4802265
:101420007B685A62012318461437BD465DF8047B79
:10143000704700BF003400400064004080B584B0B5
:1014400000AF78600023FB607B6893F82030DBB24C
:10145000012B2ED17B68022283F820207B681B6839
:101460007A681268126822F001021A60FFF7AAFD7A
:10147000F86012E0FFF7A6FD0246FB68D31A0A2BBC
:101480000BD97B685B6A43F400327B685A627B68E5
:10149000052283F82020012312E07B681B685B682B
:1014A00003F00103002BE5D17B6800225A62002380
:1014B00006E07B685B6A43F400227B685A62012382
:1014C00018461037BD4680BD80B584B000AF786047
:1014D0000023FB607B6893F82030DBB2022B33D112
:1014E0007B681B687A681268126842F001021A6011
:1014F000FFF768FDF86012E0FFF764FD0246FB6845
:10150000D31A0A2B0BD97B685B6A43F400327B68E1
:101510005A627B68052283F8202001231BE07B6848
:101520001B685B6803F00103002BE5D07B681B6838
:101530007A681268126822F002021A607B6801223F
:1015400083F82020002306E07B685B6A43F4801266
:101550007B685A62012318461037BD4680BD80B4AF
:1015600083B000AF786039607B6893F82030DBB2DD
:10157000012B05D07B6893F82030DBB2022B09D118
:101580007B681B687A68126851693A680A435A6135
:10159000002306E07B685B6A43F480227B685A6222
:1015A000012318460C37BD465DF8047B704780B5B3
:1015B0008AB000AF786000237B627B681B685B6940
:1015C0003B627B681B685B68FB617B681B689B6890
:1015D000BB617B681B68DB687B617B681B681B6980
:1015E0003B617B681B689B69FB603B6A03F00103FE
:1015F000002B7CD0BB6903F00103002B23D07B6858
:101600001B6801229A60BB6903F00203002B03D020
:10161000786800F07DF916E0BB6903F00403002B45
:1016200004D07B6A43F400637B620CE0BB6903F087
:101630000803002B04D07B6A43F480537B6202E0F2
:10164000786800F083F9BB6903F48073002B24D021
:101650007B681B684FF480729A60BB6903F4007367
:10166000002B03D0786800F05DF916E0BB6903F445
:101670008063002B04D07B6A43F400537B620CE050
:10168000BB6903F40063002B04D07B6A43F48043FE
:101690007B6202E0786800F063F9BB6903F4803391
:1016A000002B24D07B681B684FF480329A60BB69A2
:1016B00003F40033002B03D0786800F03DF916E006
:1016C000BB6903F48023002B04D07B6A43F40043FE
:1016D0007B620CE0BB6903F40023002B04D07B6A1F
:1016E00043F480337B6202E0786800F043F93B6AA0
:1016F00003F00803002B0CD07B6903F01003002BD0
:1017000007D07B6A43F400737B627B681B681022FE
:10171000DA603B6A03F00403002B0BD07B6903F013
:101720000803002B06D07B681B680822DA60786803
:1017300000F034F93B6A03F00203002B09D07B6808
:101740001B68DB6803F00303002B02D0786800F00D
:101750001BF93B6A03F04003002B0CD03B6903F0FC
:101760001003002B07D07B6A43F480637B627B68A5
:101770001B6810221A613B6A03F02003002B0BD078
:101780003B6903F00803002B06D07B681B68082226
:101790001A61786800F016F93B6A03F01003002B19
:1017A00009D07B681B681B6903F00303002B02D080
:1017B000786800F0FDF83B6A03F40033002B0BD08F
:1017C000FB6903F01003002B06D07B681B68102216
:1017D0005A60786800F000F93B6A03F48033002B0C
:1017E0000BD0FB6903F00803002B06D07B681B6855
:1017F00008225A60786800F0F9F83B6A03F4004365
:10180000002B75D0FB6903F00403002B6CD03B6AFE
:1018100003F48073002B08D0FB6803F00103002B56
:1018200003D07B6A43F001037B623B6A03F40073DD
:10183000002B08D0FB6803F00203002B03D07B6A67
:1018400043F002037B623B6A03F48063002B08D001
:10185000FB6803F00403002B03D07B6A43F004030E
:101860007B623B6A03F40063002B3DD0FB6803F00E
:101870007003002B38D0FB6803F07003302B17D0B7
:10188000302B04D8102B09D0202B0CD024E0502B67
:1018900018D0602B1BD0402B0FD01DE07B6A43F08B
:1018A00008037B6218E07B6A43F010037B6213E05D
:1018B0007B6A43F020037B620EE07B6A43F04003C7
:1018C0007B6209E07B6A43F080037B6204E07B6A11
:1018D00043F480737B6200BF7B681B687A68126880
:1018E000926922F070029A617B681B6804225A6038
:1018F0007B6A002B08D07B685A6A7B6A1A437B6834
:101900005A62786800F07CF800BF2837BD4680BD79
:1019100080B483B000AF786000BF0C37BD465DF87F
:10192000047B704780B483B000AF786000BF0C3791
:10193000BD465DF8047B704780B483B000AF78602B
:1019400000BF0C37BD465DF8047B704780B483B0A0
:1019500000AF786000BF0C37BD465DF8047B704770
:1019600080B483B000AF786000BF0C37BD465DF82F
:10197000047B704780B483B000AF786000BF0C3741
:10198000BD465DF8047B704780B483B000AF7860DB
:1019900000BF0C37BD465DF8047B704780B483B050
:1019A00000AF786000BF0C37BD465DF8047B704720
:1019B00080B483B000AF786000BF0C37BD465DF8DF
:1019C000047B704780B483B000AF786000BF0C37F1
:1019D000BD465DF8047B704780B483B000AF78608B
:1019E00000BF0C37BD465DF8047B704780B483B000
:1019F00000AF786000BF0C37BD465DF8047B7047D0
:101A000080B483B000AF786000BF0C37BD465DF88E
:101A1000047B704780B485B000AF78607B6803F0CA
:101A20000703FB600B4BDB68BB60BA684FF6FF0334
:101A30001340BB60FB681A02BB681A43064B134392
:101A4000BB60044ABB68D36000BF1437BD465DF875
:101A5000047B704700ED00E00000FA0580B400AFA1
:101A6000044BDB681B0A03F007031846BD465DF80C
:101A7000047B704700ED00E080B483B000AF034604
:101A8000FB71094997F907305B09FA7902F01F02E7
:101A9000012000FA02F241F8232000BF0C37BD46B6
:101AA0005DF8047B704700BF00E100E080B483B0C4
:101AB00000AF0346FB71094997F907305B09FA79D2
:101AC00002F01F02012000FA02F2203341F8232025
:101AD00000BF0C37BD465DF8047B704700E100E0B5
:101AE00080B483B000AF0346FB71094997F9073012
:101AF0005B09FA7902F01F02012000FA02F260335A
:101B000041F8232000BF0C37BD465DF8047B7047C9
:101B100000E100E080B483B000AF03463960FB71A0
:101B200097F90730002B0BDA0D49FB7903F00F030F
:101B3000043B3A68D2B21201D2B20B441A7609E0E1
:101B4000084997F907303A68D2B21201D2B20B4471
:101B500083F8002300BF0C37BD465DF8047B704757
:101B600000ED00E000E100E080B489B000AFF86073
:101B7000B9607A60FB6803F00703FB61FB69C3F19E
:101B80000703042B28BF0423BB61FB690433062B26
:101B900002D9FB69033B00E000237B610122BB69A2
:101BA00002FA03F35A1EBB681A407B699A4001216E
:101BB0007B6901FA03F3591E7B680B4013431846F7
:101BC0002437BD465DF8047B7047000080B582B0C5
:101BD00000AF78607B68013BB3F1807F01D30123C4
:101BE0000FE00A4A7B68013B53600F214FF0FF3042
:101BF000FFF790FF054B00229A60044B07221A6002
:101C0000002318460837BD4680BD00BF10E000E045
:101C100080B582B000AF78607868FFF7FBFE00BF48
:101C20000837BD4680BD80B586B000AF0346B960B9
:101C30007A60FB7300237B61FFF710FF78617A689D
:101C4000B9687869FFF790FF024697F90F3011469F
:101C50001846FFF75FFF00BF1837BD4680BD80B54F
:101C600082B000AF0346FB7197F907301846FFF7C3
:101C700003FF00BF0837BD4680BD80B582B000AF0E
:101C80000346FB7197F907301846FFF70FFF00BFB7
:101C90000837BD4680BD80B582B000AF78607868F7
:101CA000FFF794FF034618460837BD4680BD80B550
:101CB00082B000AF0346FB7197F907301846FFF773
:101CC0000FFF00BF0837BD4680BD000080B483B061
:101CD00000AF78607B68042B06D1094A084B1B686B
:101CE00043F00403136005E0054A054B1B6823F02D
:101CF0000403136000BF0C37BD465DF8047B7047DA
:101D000010E000E080B500AF00F002F800BF80BD39
:101D100080B400AF00BFBD465DF8047B7047000093
:101D200080B586B000AF786000237B61FFF74AF989
:101D300038617B68002B01D1012399E07B68002288
:101D400083F834207B68022283F835207B681B6887
:101D50007A681268126822F001021A600FE0FFF739
:101D600031F902463B69D31A052B08D97B6820223A
:101D70005A657B68032283F83520032378E07B686B
:101D80001B681B6803F00103002BE8D17B681B680C
:101D90001B687B617A69384B13407B617B685A68AA
:101DA0007B689B681A437B68DB681A437B681B6906
:101DB0001A437B685B691A437B689B691A437B689B
:101DC000DB691A437B681B6A13437A6913437B619F
:101DD0007B685B6A042B07D17B68DA6A7B681B6BC4
:101DE00013437A6913437B617B681B687A691A60C5
:101DF0007B681B685B697B617B6923F007037B6100
:101E00007B685B6A7A6913437B617B685B6A042B3E
:101E100017D17B689B6A7A6913437B617B68DB6AB5
:101E2000002B0ED0786800F067FB0346002B08D02B
:101E30007B6840225A657B68012283F835200123A4
:101E400016E07B681B687A695A61786800F01EFBAF
:101E50000346FB607B68DB6D3F229A40FB689A601B
:101E60007B6800225A657B68012283F835200023B5
:101E700018461837BD4680BD3F8010E080B584B05D
:101E800000AF78607B68002B01D1012350E07B68B4
:101E900093F83530DBB2022B01D1022348E07B6896
:101EA0001B687A681268126822F001021A607B6867
:101EB0001B6800221A607B681B6800225A607B68DE
:101EC0001B6800229A607B681B680022DA607B68CE
:101ED0001B6800221A617B681B6821225A6178689E
:101EE00000F0D4FA0346FB607B68DB6D3F229A402A
:101EF000FB689A607B680022DA637B6800221A64C0
:101F00007B6800225A647B6800229A647B68002206
:101F1000DA647B6800221A657B6800225A657B6858
:101F2000002283F835207B68002283F834200023C8
:101F300018461037BD4680BD80B586B000AFF8604A
:101F4000B9607A603B600023FB75FB689B6D3B6169
:101F5000FB6893F83430012B01D1022348E0FB6881
:101F6000012283F83420FB6893F83530DBB2012B73
:101F700037D1FB68022283F83520FB6800225A65BE
:101F80003B687A68B968F86800F052FAFB68DB6D64
:101F90003F229A403B699A60FB681B68FA681268A6
:101FA000126842F016021A60FB681B68FA68126831
:101FB000526942F080025A61FB681B6C002B07D00B
:101FC000FB681B68FA681268126842F008021A601F
:101FD000FB681B68FA681268126842F001021A6016
:101FE00005E0FB68002283F834200223FB75FB7DAB
:101FF00018461837BD4680BD80B584B000AF786004
:102000007B689B6DFB60FEF7DDFFB8607B6893F833
:102010003530DBB2022B08D07B6880225A657B68A2
:10202000002283F83420012352E07B681B687A6821
:102030001268126822F016021A607B681B687A68C0
:102040001268526922F080025A617B681B6C002B77
:1020500003D17B689B6C002B07D07B681B687A6878
:102060001268126822F008021A607B681B687A689E
:102070001268126822F001021A6013E0FEF7A2FF54
:102080000246BB68D31A052B0CD97B6820225A65FF
:102090007B68002283F834207B68032283F8352094
:1020A000032315E07B681B681B6803F00103002B0A
:1020B000E4D17B68DB6D3F229A40FB689A607B68C5
:1020C000002283F834207B68012283F83520002326
:1020D00018461037BD4680BD80B483B000AF78602D
:1020E0007B6893F83530DBB2022B04D07B6880220A
:1020F0005A6501230CE07B68052283F835207B6854
:102100001B687A681268126822F001021A600023C4
:1021100018460C37BD465DF8047B704780B586B025
:1021200000AF78600023BB60924B1B68924AA2FB11
:1021300003239B0A7B617B689B6D3B613B691B684A
:10214000FB607B68DB6D08229A40FB681340002B24
:102150001AD07B681B681B6803F00403002B13D0A4
:102160007B681B687A681268126822F004021A60A1
:102170007B68DB6D08229A403B699A607B685B6DE7
:1021800043F001027B685A657B68DB6D01229A404F
:10219000FB681340002B12D07B681B685B6903F05F
:1021A0008003002B0BD07B68DB6D01229A403B69DA
:1021B0009A607B685B6D43F002027B685A657B68BE
:1021C000DB6D04229A40FB681340002B12D07B6821
:1021D0001B681B6803F00203002B0BD07B68DB6DD0
:1021E00004229A403B699A607B685B6D43F004026D
:1021F0007B685A657B68DB6D10229A40FB68134050
:10220000002B43D07B681B681B6803F00803002B7E
:102210003CD07B68DB6D10229A403B699A607B68FA
:102220001B681B6803F48023002B18D07B681B6895
:102230001B6803F40023002B08D17B681B6C002B68
:1022400024D07B681B6C786898471FE07B689B6C88
:10225000002B1BD07B689B6C7868984716E07B68E6
:102260001B681B6803F48073002B07D17B681B6815
:102270007A681268126822F008021A607B681B6C88
:10228000002B03D07B681B6C786898477B68DB6DFC
:1022900020229A40FB681340002B00F08E807B6860
:1022A0001B681B6803F01003002B00F086807B681E
:1022B000DB6D20229A403B699A607B6893F8353049
:1022C000DBB2052B36D17B681B687A68126812680E
:1022D00022F016021A607B681B687A6812685269DD
:1022E00022F080025A617B681B6C002B03D17B6853
:1022F0009B6C002B07D07B681B687A681268126899
:1023000022F008021A607B68DB6D3F229A403B692D
:102310009A607B68002283F834207B68012283F86E
:1023200035207B681B6D002B7DD07B681B6D78682A
:10233000984778E07B681B681B6803F48023002BB8
:102340001CD07B681B681B6803F40023002B08D19A
:102350007B685B6C002B30D07B685B6C786898473F
:102360002BE07B68DB6B002B27D07B68DB6B78680E
:10237000984722E028010220B5814E1B7B681B682C
:102380001B6803F48073002B0FD17B681B687A688D
:102390001268126822F010021A607B68002283F82B
:1023A00034207B68012283F835207B68DB6B002BAF
:1023B00003D07B68DB6B786898477B685B6D002B8C
:1023C00032D07B685B6D03F00103002B22D07B6869
:1023D000052283F835207B681B687A6812681268CA
:1023E00022F001021A60BB680133BB607A69934234
:1023F00007D87B681B681B6803F00103002BF2D130
:1024000000E000BF7B68002283F834207B68012253
:1024100083F835207B68DB6C002B05D07B68DB6C98
:102420007868984700E000BF1837BD4680BD00BF00
:1024300080B485B000AFF860B9607A603B60FB683B
:102440001B68FA681268126822F480221A60FB681E
:102450001B683A685A60FB689B68402B08D1FB6890
:102460001B687A689A60FB681B68BA68DA6007E0E4
:10247000FB681B68BA689A60FB681B687A68DA6058
:1024800000BF1437BD465DF8047B704780B485B04B
:1024900000AF78607B681B68DBB2103B134AA2FB7D
:1024A00003231B09FB60124AFB6813441B781A467E
:1024B0007B68DA65FB68032B08D97B681B681A46C2
:1024C0000C4B13401A1D7B689A6506E07B681B68FD
:1024D0001A46084B13407A6893657B689B6D1846D3
:1024E0001437BD465DF8047B704700BFABAAAAAAAB
:1024F0004C6E010800FCFFFF80B485B000AF78602F
:102500000023FB737B689B6ABB607B689B69002B25
:102510001FD1BB68032B55D801A252F823F000BF8E
:10252000312500084325000831250008C52500088D
:102530007B68DB6A03F08073002B45D00123FB73BB
:1025400042E07B68DB6AB3F1C07F3FD10123FB73BC
:102550003CE07B689B69B3F5005F21D1BB68032B2E
:1025600036D801A252F823F0792500087F2500080B
:1025700079250008912500080123FB732FE07B6873
:10258000DB6A03F08073002B24D00123FB7321E06E
:102590007B68DB6AB3F1C07F1ED10123FB731BE0B4
:1025A000BB68022B02D9032B03D018E00123FB7375
:1025B00015E07B68DB6A03F08073002B0ED00123EB
:1025C000FB730BE000BF0AE000BF08E000BF06E0BD
:1025D00000BF04E000BF02E000BF00E000BFFB7BE3
:1025E00018461437BD465DF8047B704780B582B04D
:1025F00000AF78607B68002B01D1012351E07B683C
:1026000093F85130DBB2002B06D17B68002283F8AF
:10261000502078680BF00EFC7B68022283F8512072
:102620007B681B687A681268126822F440317A6805
:1026300052680A431A607B681B687A681268526B9A
:1026400022F007017A6892680A435A637B681A6825
:102650007B681B68196C154B0B407968C9680B4384
:1026600013647B681B687A681268526B22F48011CD
:102670007A68126912050A435A637B681B687A6894
:102680001268526B22F400117A68526952050A43AB
:102690005A637B6800225A657B68012283F85120C7
:1026A000002318460837BD4680BD00BF00C0FFFFAD
:1026B00080B586B002AFF860B9607A603B60FB68B5
:1026C00093F85030012B01D1022318E0FB6801225E
:1026D00083F85020FB68022283F85120BB690093E5
:1026E0003B687A68B968F86800F0A2F9FB681B6873
:1026F000FA681268126842F001021A600023184654
:102700001037BD4680BD80B584B000AF78603960B9
:102710000023FB600023BB607B681B681B6803F021
:102720000103002B56D0FEF74DFCF8604BE07B68B0
:102730001B685B68BB60BB6803F02103002B23D0E0
:10274000BB6803F02003002B05D07B685B6D43F072
:1027500002027B685A65BB6803F00103002B05D0B9
:102760007B685B6D43F001027B685A657B681B6880
:1027700021229A607B68042283F851207B68002222
:1027800083F850200123A2E03B68B3F1FF3F1AD049
:102790003B68002B07D0FEF715FC0246FB68D21AF7
:1027A0003B689A420FD97B685B6D43F020027B68DF
:1027B0005A657B68032283F851207B68002283F8E6
:1027C0005020032383E07B681B685B6803F00203EF
:1027D000002BACD07B681B68DB6903F02003002B67
:1027E00006D17B681B685B6A03F02003002B61D075
:1027F000FEF7E8FBF86056E07B681B685B68BB602F
:10280000BB6803F02903002B2ED0BB6803F008033C
:10281000002B05D07B685B6D43F004027B685A6532
:10282000BB6803F02003002B05D07B685B6D43F091
:1028300002027B685A65BB6803F00103002B05D0D8
:102840007B685B6D43F001027B685A657B681B689F
:1028500029229A607B68042283F851207B68002239
:1028600083F85020012332E03B68B3F1FF3F1AD0D8
:102870003B68002B07D0FEF7A5FB0246FB68D21A87
:102880003B689A420FD97B685B6D43F020027B68FE
:102890005A657B68032283F851207B68002283F805
:1028A0005020032313E07B681B685B6803F0100370
:1028B000002BA1D07B681B6812229A607B680122E2
:1028C00083F851207B68002283F8502000231846AB
:1028D0001037BD4680BD000080B487B000AF78607F
:1028E00039603A6813465B001344DB0020337A6892
:1028F00013443B610023FB6000237B617B685B68C2
:10290000B3F5403F7B6893F85030012B01D102238F
:1029100085E07B68012283F850207B68022283F8DF
:1029200051203B695A683B699B681B0413437B61D8
:102930003E4BFB603B691B691B057A6913437B6156
:10294000FB6843F48013FB603B695B695B057A6954
:1029500013437B61FB6843F40013FB603B695B68D6
:102960000A2B03D03B695B68092B07D13B69DB6805
:1029700003F07F437A6913437B6105E03B69DB68C1
:102980001B067A6913437B613B68002B1FD17B6870
:102990001B687A681268516AFA68D24311407A69F2
:1029A0000A435A627B681B683A6912689A613B69FC
:1029B0005B680A2B03D03B695B68092B26D17B68D7
:1029C0001B683A69D26822F07F429A621EE07B68F7
:1029D0001B687A681268D169FA68D24311407A6933
:1029E0000A43DA617B681B683A6912681A613B69BD
:1029F0005B680A2B03D03B695B68092B06D17B68B7
:102A00001B683A69D26822F07F421A627B68012211
:102A100083F851207B68002283F850200023184659
:102A20001C37BD465DF8047B704700BF0F0003FFF5
:102A300080B48BB000AFF860B9607A603B6000236F
:102A40007B6200233B620023FB610023BB61002308
:102A50007B61FB681B68FA681268526C02F04041A7
:102A60003A6810043A6B02430A435A64FB681B68D5
:102A70007A68DA63FB685B68B3F5403F74D1BB6882
:102A800003F07F433B62BB6803F47F03FB61BB68D9
:102A900003F47F43BB61BB68DBB27B61FB689B686F
:102AA000002B08D1BA69FB691A433B6A1A437B6958
:102AB00013437B6253E0FB689B68012B06D1BA6924
:102AC000FB691A437B6913437B6248E0FB689B68A0
:102AD000022B11D1FB69DB0CFB61BB699B0ABB615B
:102AE0007B69DB087B61BB695A01FB69DB021A4326
:102AF0007B6913437B6232E0FB689B68032B17D131
:102B00003B6ADB0F3B62FB69DB0CFB61BB69DB0AE9
:102B1000BB617B69DB087B61BB695A01FB699B0276
:102B20001A433B6ADB031A437B6913437B6216E05B
:102B30003B6A1B0F3B62FB691B0DFB61BB691B0BF7
:102B4000BB617B691B097B61BB691A01FB691B02C5
:102B50001A433B6A1B031A437B6913437B62FB687E
:102B60001B687A6A9A6303E0FB681B68BA68DA60DC
:102B700000BF2C37BD465DF8047B704780B586B03A
:102B800000AF7860396000237B6100233B61002344
:102B9000FB607B68002B01D10123F0E07B685B7C4C
:102BA000DBB2002B02D178680BF098F97B68032226
:102BB0005A747B681B687A681268D2F8302442F035
:102BC0008072C3F83024FEF7FDF9786109E0FEF762
:102BD000F9F902467B69D31AB3F57A7F01D9032349
:102BE000CDE07B681B68D3F80C3403F48053002BD2
:102BF000EDD07B681A687B681B68D3F83014624B91
:102C00000B40C2F830347B681B687A681268D2F8CF
:102C100030143A68126890003A685268D202104341
:102C20003A689268120402430A43C3F830247B686E
:102C30001B687A681268D2F8302442F00102C3F8A7
:102C40003024FEF7BFF9786109E0FEF7BBF90246D0
:102C50007B69D31AB3F57A7F01D903238FE07B68B0
:102C60001B68D3F80C3403F48073002BEDD07B6821
:102C70001B687A681268D2F8A02042F00602C3F8F6
:102C8000A0207B681B687A681268D2F8942022F032
:102C90000302C3F894207B681B687A681268D2F834
:102CA00094107A6852680A4342F00102C3F89420F3
:102CB0007B681B687A681268D2F8A42022F00302AD
:102CC000C3F8A4207B681B687A681268D2F8A41045
:102CD0007A68D2680A43C3F8A4207B681B687A68C4
:102CE0001268926822F0FF029A607B681B687A681B
:102CF000126891687A6892680A439A603B685B68D8
:102D0000002B02D03B685B6800E00123FB60FB689E
:102D10001E4A02FB03F23B689B689A403B681B68B3
:102D200046F2A81101FB03F3B2FBF3F33B617B68AE
:102D30001B687A681268D2F8182422F03F02C3F8A0
:102D400018247B681B687A681268D2F818143A69EC
:102D50000A43C3F818247B681B680022C3F8C42008
:102D60007B681B680022C3F8C8207B6800229A6138
:102D70007B6800225A617B6801225A74002318463E
:102D80001837BD4680BD00BF0386FCFF00093D002B
:102D900080B483B000AF786039607B681B7C012B06
:102DA00001D10223EEE17B6801221A747B681B6863
:102DB0007A681268526B22F001025A637B681B68C2
:102DC0007A681268D2F8002422F00102C3F80024C5
:102DD0007B681B687A681268926B22F003029A6320
:102DE0007B681B687A681268916B3A68D2680A43FC
:102DF0009A637B681A687B681B68D96B8B4B0B40A6
:102E0000D3637B681B687A681268D16B3A68126971
:102E10000A43DA637B681A687B681B68196C844B09
:102E20000B4013647B681B687A681268116C3A68FF
:102E300052690A431A647B681A687B681B68596C7C
:102E40007B4B0B4053647B681B687A681268516C3B
:102E50003A6892690A435A647B681B687A68126808
:102E6000D26822F00302DA607B681B687A68126815
:102E7000D1683A6812680A43DA607B681B687A682E
:102E80001268526922F007025A617B681B687A68EF
:102E9000126851693A68506A3A68126A10433A688F
:102EA000D26902430A435A617B681B687A681268D8
:102EB000126922F00F021A617B681B687A68126837
:102EC00011693A6852680A431A617B681B687A681C
:102ED0001268D2F8002422F00E02C3F800247B68A6
:102EE0001B687A681268D2F800143A685268520077
:102EF0000A43C3F800243B685B68032B10D17B684E
:102F00001B687A681268126922F480721A617B6801
:102F10001B687A68126811693A6892680A431A61F4
:102F20007B681A687B681B68996C424B0B40936402
:102F30007B681B687A681268916C3A68926A0A43E7
:102F40009A647B681A687B681B68D96C394B0B40A4
:102F5000D3647B681B687A681268D16C3A68D26A5D
:102F60000A43DA647B681A687B681B68196D324B08
:102F70000B4013657B681B687A681268116D3A68AC
:102F8000126B0A431A657B681A687B681B68596D67
:102F90002A4B0B4053657B681B687A681268516D39
:102FA0003A68526B0A435A657B681A687B681B68EB
:102FB000996D224B0B4093657B681B687A68126899
:102FC000916D3A68926B0A439A657B681A687B68D0
:102FD0001B68D96D194B0B40D3657B681B687A68F9
:102FE0001268D16D3A68D26B0A43DA657B681A6859
:102FF0007B681B68196E0D4B0B4013667B681B6862
:103000007A681268116E3A68126C0A431A667B6815
:103010001B687A681268926B22F400429A637B689C
:103020001B687A681268916B0AE000BF00C0FFFF5E
:1030300000E0FFFF00F0FFFF0080FFFF00FCFFFF4C
:103040003A68526C0A439A637B681B687A68126814
:10305000926922F47F029A617B681B687A68126821
:1030600091693A68926C12040A439A617B681B6802
:103070007A681268926922F0FF029A617B681B6885
:103080007A68126891693A68D26C0A439A617B68DF
:103090001B687A681268926B22F400529A637B680C
:1030A0001B687A681268916B3A68126D0A439A63DA
:1030B0007B681B687A681268926B22F480529A636C
:1030C0007B681B687A681268916B3A68526D0A4394
:1030D0009A637B681B687A681268926B22F40062BC
:1030E0009A637B681B687A681268916B3A68926D84
:1030F0000A439A637B681B687A681268926B22F4B1
:1031000080629A637B681B687A681268916B3A6880
:10311000D26D0A439A637B681B687A681268926B67
:1031200022F400729A637B681B687A681268916B5C
:103130003A68126E0A439A637B681B687A68126861
:10314000926B22F480729A637B681B687A681268BB
:10315000916B3A68526E0A439A637B681B687A687F
:103160001268926B22F480429A637B681B687A68CB
:103170001268916B3A68926E0A439A637B680022E8
:103180001A74002318460C37BD465DF8047B70475F
:1031900080B483B000AF78607B681B7C012B01D1C9
:1031A000022318E07B6801221A747B681B687A6826
:1031B0001268526842F001025A607B681B687A68A4
:1031C0001268D2F8042442F00802C3F804247B6891
:1031D00000221A74002318460C37BD465DF8047BA4
:1031E0007047000080B489B000AF78603960002378
:1031F000FB6100237B6100233B610023BB61002353
:10320000FB6175E10122FB6902FA03F37B613B6814
:103210001A687B6913403B613A697B699A4240F0C6
:1032200064813B685B68022B03D03B685B68122BB0
:1032300023D1FB69DA087B68083253F82230BB617E
:10324000FB6903F007039B000F2202FA03F3DB4341
:10325000BA691340BB613B681A69FB6903F0070355
:103260009B0002FA03F3BA691343BB61FB69DA08F6
:103270007B680832B96943F822107B681B68BB6120
:10328000FB695B00032202FA03F3DB43BA691340D4
:10329000BB613B685B6803F00302FB695B0002FAF9
:1032A00003F3BA691343BB617B68BA691A603B6870
:1032B0005B68012B0BD03B685B68022B07D03B6837
:1032C0005B68112B03D03B685B68122B30D17B68A5
:1032D0009B68BB61FB695B00032202FA03F3DB43DB
:1032E000BA691340BB613B68DA68FB695B0002FAAC
:1032F00003F3BA691343BB617B68BA699A607B6860
:103300005B68BB610122FB6902FA03F3DB43BA6924
:103310001340BB613B685B681B0903F00102FB695A
:1033200002FA03F3BA691343BB617B68BA695A6056
:103330007B68DB68BB61FB695B00032202FA03F375
:10334000DB43BA691340BB613B689A68FB695B0069
:1033500002FA03F3BA691343BB617B68BA69DA60A6
:103360003B685B6803F08053002B00F0BE80654A29
:10337000644B5B6C43F480435364624B5B6C03F4BB
:103380008043FB60FB68604AFB699B08023352F88C
:103390002330BB61FB6903F003039B000F2202FA99
:1033A00003F3DB43BA691340BB617B68574A93421E
:1033B00037D07B68564A934231D07B68554A934256
:1033C0002BD07B68544A934225D07B68534A934262
:1033D0001FD07B68524A934219D07B68514A93426E
:1033E00013D07B68504A93420DD07B684F4A93427A
:1033F00007D07B684E4A934201D1092312E00A2389
:1034000010E008230EE007230CE006230AE0052362
:1034100008E0042306E0032304E0022302E0012382
:1034200000E00023FA6902F0030292009340BA69B7
:103430001343BB613449FB699B080233BA6941F805
:1034400023203C4B1B68BB613B69DB43BA691340DB
:10345000BB613B685B6803F48033002B03D0BA691F
:103460003B691343BB61334ABB691360314B5B68F3
:10347000BB613B69DB43BA691340BB613B685B6876
:1034800003F40033002B03D0BA693B691343BB61DB
:10349000284ABB695360274B9B68BB613B69DB4390
:1034A000BA691340BB613B685B6803F48013002B6F
:1034B00003D0BA693B691343BB611E4ABB69936081
:1034C0001C4BDB68BB613B69DB43BA691340BB61E2
:1034D0003B685B6803F40013002B03D0BA693B69B7
:1034E0001343BB61134ABB69D360FB690133FB61C2
:1034F000FB690F2B7FF686AE00BF2437BD465DF813
:10350000047B704700380240003801400000024050
:103510000004024000080240000C0240001002407B
:103520000014024000180240001C0240002002402B
:1035300000240240003C014080B487B000AF7860B6
:10354000396000233B610023FB600023BB60002344
:103550007B61DAE001227B6902FA03F33B613A689E
:103560003B691340FB60FA683B699A4240F0CA80AD
:103570007B681A687B695B00032101FA03F3DB4374
:103580001A407B681A607B69DA087B69D9087B6816
:10359000083153F821107B6903F007039B000F20CB
:1035A00000FA03F3DB4319407B68083243F822102A
:1035B0007B689A687B695B00032101FA03F3DB43B4
:1035C0001A407B689A607B685A6801217B6901FA1E
:1035D00003F3DB431A407B685A607B68DA687B69D7
:1035E0005B00032101FA03F3DB431A407B68DA60D6
:1035F0004B4A7B699B08023352F82330BB607B69DE
:1036000003F003039B000F2202FA03F3BA6813408E
:10361000BB607B68434A934237D07B68424A9342FF
:1036200031D07B68414A93422BD07B68404A934219
:1036300025D07B683F4A93421FD07B683E4A934225
:1036400019D07B683D4A934213D07B683C4A934231
:103650000DD07B683B4A934207D07B683A4A93423D
:1036600001D1092312E00A2310E008230EE007230A
:103670000CE006230AE0052308E0042306E0032308
:1036800004E0022302E0012300E000237A6902F053
:103690000302920003FA02F2BB689A4232D17B69BC
:1036A00003F003039B000F2202FA03F3BB601C48E4
:1036B0007B699B081A497A699208023251F82210F4
:1036C000BA68D2430A40023340F823201F491F4BF7
:1036D0001A68FB68DB4313400B601C491B4B5A689C
:1036E000FB68DB4313404B601849184B9A68FB6832
:1036F000DB4313408B601549144BDA68FB68DB43EE
:103700001340CB607B6901337B617B690F2B7FF6B4
:1037100021AF00BF1C37BD465DF8047B704700BF7A
:10372000003801400000024000040240000802404E
:10373000000C024000100240001402400018024039
:10374000001C02400020024000240240003C0140D6
:1037500080B485B000AF78600B467B807B681A69C7
:103760007B881340002B02D00123FB7301E0002370
:10377000FB73FB7B18461437BD465DF8047B70472E
:1037800080B483B000AF78600B467B8013467B70BB
:103790007B78002B03D07A887B689A6103E07B8872
:1037A0001A047B689A6100BF0C37BD465DF8047B44
:1037B0007047F0B58DB00AAF78607B68002B01D1FF
:1037C000012348E07B6893F8B932DBB2002B06D1C5
:1037D0007B68002283F8B82278680BF065F97B6873
:1037E000032283F8B9227B681B68184607F08BF91F
:1037F0007B681B683B607E686D4606F110040FCC49
:103800000FC50FCC0FC594E8030085E80300331DF6
:103810000ECB386807F014F97B681B680121184645
:1038200007F082F97B681B683B607E686D4606F195
:1038300010040FCC0FC50FCC0FC594E8030085E82A
:103840000300331D0ECB386807F094FA7B68012221
:1038500083F8B922002318460C37BD46F0BD90B559
:1038600089B004AF7860084611461A460346FB70DB
:103870000B46BB7013467B707B6893F8B832012B04
:1038800001D102237FE07B68012283F8B822FA7815
:10389000796813469B001344DB000B443D33002240
:1038A0001A70FA78796813469B001344DB000B44C6
:1038B00038337A781A70FA78796813469B00134483
:1038C000DB000B4440333A8D1A80FA78796813464E
:1038D0009B001344DB000B443933FA781A70FA78F2
:1038E000796813469B001344DB000B443F3397F881
:1038F00024201A70FA78BB7803F07F03D8B2796875
:1039000013469B001344DB000B443A3302461A7003
:1039100097F90230002B0ADAFA78796813469B008F
:103920001344DB000B443B3301221A7009E0FA78A0
:10393000796813469B001344DB000B443B330022A1
:103940001A70FA78796813469B001344DB000B4425
:103950003C3397F820201A707B6818687C78BA7816
:10396000F9783B8D029397F82430019397F8203033
:103970000093234607F028FB0346FB737B68002275
:1039800083F8B822FB7B18461437BD4690BD80B53E
:1039900084B000AF78600B46FB700023FB737B683C
:1039A00093F8B832012B01D102230FE07B6801228A
:1039B00083F8B8227B681B68FA781146184607F02E
:1039C0006AFD7B68002283F8B822FB7B184610371B
:1039D000BD4680BD80B582B000AF78600846114614
:1039E0001A460346FB700B46BB7013467B70FA7891
:1039F000796813469B001344DB000B443B33BA78D1
:103A00001A70FA78796813469B001344DB000B4464
:103A10003F337A781A703B7C002B0AD1FA787968A8
:103A200013469B001344DB000B44423303221A70FD
:103A300009E0FA78796813469B001344DB000B44D5
:103A4000423302221A707B78032B00F2D68001A247
:103A500052F823F0653A0008E53B0008D13A000827
:103A60005B3B00083B7C012B40F0C980BB78002BFE
:103A700040F0C5803B8B002B09D1FA78796813465A
:103A80009B001344DB000B44513301221A70FA7877
:103A9000796813469B001344DB000B4451331B78B9
:103AA000002B0AD1FA78796813469B001344DB0097
:103AB0000B44423300221A70A1E0FA787968134669
:103AC0009B001344DB000B44423302221A7096E041
:103AD000BB78002B20D1FA78796813469B001344F9
:103AE000DB000B4451331B78002B0AD1FA7879683C
:103AF00013469B001344DB000B44423300221A7030
:103B00007EE0FA78796813469B001344DB000B448F
:103B1000423302221A7073E0FA78796813469B00E8
:103B20001344DB000B4450331B78002B0AD1FA7886
:103B3000796813469B001344DB000B444233002298
:103B40001A705DE0FA78796813469B001344DB0035
:103B50000B44423302221A7052E0BB78002B20D172
:103B6000FA78796813469B001344DB000B44513309
:103B70001B78002B0AD1FA78796813469B0013440E
:103B8000DB000B44423300221A7039E0FA7879687E
:103B900013469B001344DB000B44423302221A708D
:103BA0002EE0FA78796813469B001344DB000B443F
:103BB00050331B78002B0AD1FA78796813469B00A2
:103BC0001344DB000B44423300221A7018E0FA78E9
:103BD000796813469B001344DB000B4442330222F6
:103BE0001A700DE0FA78796813469B001344DB00E5
:103BF0000B44423300221A7002E000BF00E000BF15
:103C0000FA78796813469B001344DB000B44443375
:103C10007A691A60FA78398B786813469B001344E6
:103C2000DB00034448331960FA78796813469B0037
:103C30001344DB000B445C3300221A70FA78796875
:103C400013469B001344DB000B444C3300221A60E4
:103C5000FA78796813469B001344DB000B44393330
:103C6000FA781A70FA78796813469B001344DB00DF
:103C70000B445D3300221A707B681868FA7813468B
:103C80009B001344DB0038337A68D1187B681B69CA
:103C9000DBB21A4607F0A8FA034618460837BD46B5
:103CA00080BD00BF80B586B000AF78607B681B68C0
:103CB0003B613B69FB607B681B68184607F017F89F
:103CC0000346012B40F0F2807B681B68184606F023
:103CD000FBFF0346002B00F0E8807B681B6818465A
:103CE00006F0F2FF034603F40013B3F5001F04D1FE
:103CF0007B681B684FF400125A617B681B6818468A
:103D000006F0E2FF034603F48013B3F5801F04D1ED
:103D10007B681B684FF480125A617B681B681846E9
:103D200006F0D2FF034603F08063B3F1806F04D145
:103D30007B681B684FF080625A617B681B6818467D
:103D400006F0C2FF034603F00203022B03D17B6897
:103D50001B6802225A617B681B68184606F0B4FF94
:103D6000034603F00053B3F1005F18D1FB6803F57D
:103D700088631A46FB6803F588631B6823F02E03EB
:103D8000136078680AF0FCFE7B681B680121184606
:103D900007F092F87B681B684FF000525A617B680D
:103DA0001B68184606F090FF034603F08073B3F1DA
:103DB000807F02D1786801F0B5F87B681B681846EF
:103DC00006F082FF034603F00803082B06D178684B
:103DD0000AF0BAFE7B681B6808225A617B681B6880
:103DE000184606F071FF034603F00073B3F1007F3D
:103DF00038D17B681B68184607F03CFBB86000238D
:103E00007B6125E07B6903F00F03BA6822FA03F3B4
:103E100003F00103002B18D07B695A01FB6813449F
:103E200003F5A0631B6803F40043B3F5004F06D10C
:103E30007B69DBB21946786800F0B3F805E07B696E
:103E4000DBB21946786800F04DFC7B6901337B6179
:103E50007B689A687B699A42D4D87B681B684FF06C
:103E600000725A617B681B68184606F02DFF0346F6
:103E700003F01003102B01D1012300E00023002BDD
:103E800014D07B681B687A681268926922F010026D
:103E90009A61786800F09AFF7B681B687A681268FC
:103EA000926942F010029A6100E000BF1837BD46E7
:103EB00080BD80B582B000AF78607B6893F8B8327F
:103EC000012B01D1022313E07B68012283F8B82281
:103ED0007B681B68184606F005FE7B681B6801219D
:103EE000184607F025F87B68002283F8B8220023E3
:103EF00018460837BD4680BD80B582B000AF7860F7
:103F00007B6893F8B832012B01D102230DE07B6866
:103F1000012283F8B8227B681B68184607F000FC72
:103F20007B68002283F8B822002318460837BD4674
:103F300080BD80B483B000AF78600B46FB70FA7828
:103F4000796813469B001344DB000B445C331B78F9
:103F500018460C37BD465DF8047B704780B483B0CB
:103F600000AF78600B46FB70FA78796813469B00C7
:103F70001344DB000B444C331B6818460C37BD461A
:103F80005DF8047B704780B582B000AF78607B68D5
:103F90001B68184607F007F8034618460837BD4661
:103FA00080BD80B586B000AF78600B46FB707B6843
:103FB0001B687B617B693B61FB78FB60FB685A0196
:103FC0003B69134403F5A0639B6803F00403042BCF
:103FD0001AD1FB685A013B69134403F5A0631A46E2
:103FE00004239360FB685A013B69134403F5A06303
:103FF0001946FB685A013B69134403F5A063DB686B
:1040000043F00203CB6097E0FB685A013B6913441D
:1040100003F5A0639B6803F02003202B09D1FB6804
:104020005A013B69134403F5A0631A4620239360A9
:1040300082E0FB685A013B69134403F5A0639B6867
:1040400003F00803082B35D1FB685A013B69134480
:1040500003F5A0631946FB685A013B69134403F555
:10406000A063DB6843F00203CB607968FA6813460B
:104070009B001344DB000B445D3305221A70FB6880
:104080005A013B69134403F5A0631A461023936059
:10409000FB685A013B69134403F5A0631A460823E1
:1040A00093607B681B68FA68D2B21146184607F025
:1040B000F2F941E0FB685A013B69134403F5A06340
:1040C0009B6803F48063B3F5806F35D1FB685A01B8
:1040D0003B69134403F5A0631946FB685A013B6929
:1040E000134403F5A063DB6843F00203CB607B68F5
:1040F0001B68FA68D2B21146184607F0CCF9FB6883
:104100005A013B69134403F5A0631A4610239360D8
:104110007968FA6813469B001344DB000B445D3357
:1041200008221A70FB685A013B69134403F5A06327
:104130001A464FF480639360FB685A013B6913444D
:1041400003F5A0639B6803F40073B3F5007F23D1EC
:10415000FB685A013B69134403F5A0631946FB68E9
:104160005A013B69134403F5A063DB6843F0020383
:10417000CB607B681B68FA68D2B21146184607F01C
:104180008AF9FB685A013B69134403F5A0631A4698
:104190004FF400739360A1E2FB685A013B6913443A
:1041A00003F5A0639B6803F00103012B40F0C3807B
:1041B0007B681B69002B1BD07968FA6813469B004B
:1041C0001344DB000B4448331A68FB6859013B6910
:1041D0000B4403F5A0631B69C3F31203D11A78687B
:1041E000FA6813469B001344DB0003444C33196008
:1041F0007968FA6813469B001344DB000B445D3377
:1042000001221A707968FA6813469B001344DB0098
:104210000B44583300221A60FB685A013B6913446F
:1042200003F5A0631A46012393607968FA68134680
:104230009B001344DB000B443F331B78002B0AD058
:104240007968FA6813469B001344DB000B443F3344
:104250001B78022B22D1FB685A013B69134403F5FA
:10426000A0631946FB685A013B69134403F5A06338
:10427000DB6843F00203CB607B681B68FA68D2B24C
:104280001146184607F007F9FB685A013B691344C9
:1042900003F5A0631A461023936035E07968FA6845
:1042A00013469B001344DB000B443F331B78032B66
:1042B0002AD1FB685A013B69134403F5A0631946F0
:1042C000FB685A013B69134403F5A0631B6843F084
:1042D00000530B607968FA6813469B001344DB00B7
:1042E0000B445C3301221A70FB68D8B27968FA6813
:1042F00013469B001344DB000B445C331B781A46C7
:10430000014678680AF04AFC7968FA6813469B000F
:104310001344DB000B4450331B7883F00103D8B205
:104320007968FA6813469B001344DB000B44503352
:1043300002461A70D2E1FB685A013B69134403F547
:10434000A0639B6803F00203022B40F0F280FB683D
:104350005A013B69134403F5A0631946FB685A01EF
:104360003B69134403F5A063DB6823F00203CB60D1
:104370007968FA6813469B001344DB000B445D33F5
:104380001B78012B0AD17968FA6813469B00134405
:10439000DB000B445C3301221A70B0E07968FA68E4
:1043A00013469B001344DB000B445D331B78052B45
:1043B0000AD17968FA6813469B001344DB000B446A
:1043C0005C3305221A709AE07968FA6813469B00FC
:1043D0001344DB000B445D331B78062B0AD079684D
:1043E000FA6813469B001344DB000B445D331B78D3
:1043F000082B56D17968FA6813469B001344DB00FA
:104400000B4458331B68591C7868FA6813469B00A4
:104410001344DB000344583319607968FA68134683
:104420009B001344DB000B4458331B68032B14D947
:104430007968FA6813469B001344DB000B44583339
:1044400000221A607968FA6813469B001344DB0067
:104450000B445C3304221A7009E07968FA68134649
:104460009B001344DB000B445C3302221A70FB6890
:104470005A013B69134403F5A0631B68BB60BB682A
:1044800023F08043BB60BB6843F00043BB60FB6824
:104490005A013B69134403F5A0631A46BB681360D5
:1044A0002DE07968FA6813469B001344DB000B4447
:1044B0005D331B78032B22D17968FA6813469B0081
:1044C0001344DB000B445C3302221A70FB685A0170
:1044D0003B69134403F5A0631B68BB60BB6823F012
:1044E0008043BB60BB6843F00043BB60FB685A017C
:1044F0003B69134403F5A0631A46BB681360FB686D
:104500005A013B69134403F5A0631A4602239360E2
:10451000FB68D8B27968FA6813469B001344DB0045
:104520000B445C331B781A46014678680AF036FB68
:10453000D4E0FB685A013B69134403F5A0639B6810
:1045400003F08003802B3FD1FB685A013B69134481
:1045500003F5A0631946FB685A013B69134403F550
:10456000A063DB6843F00203CB607968FA68134606
:104570009B001344DB000B4458331B68591C7868BC
:10458000FA6813469B001344DB0003445833196058
:104590007968FA6813469B001344DB000B445D33D3
:1045A00006221A707B681B68FA68D2B21146184658
:1045B00006F071FFFB685A013B69134403F5A063E1
:1045C0001A468023936089E0FB685A013B691344D3
:1045D00003F5A0639B6803F01003102B7ED179686C
:1045E000FA6813469B001344DB000B443F331B78EF
:1045F000032B23D17968FA6813469B001344DB0030
:104600000B44583300221A60FB685A013B6913447B
:1046100003F5A0631946FB685A013B69134403F58F
:10462000A063DB6843F00203CB607B681B68FA6819
:10463000D2B21146184606F02EFF46E07968FA68B5
:1046400013469B001344DB000B443F331B78002BC5
:104650000AD07968FA6813469B001344DB000B44C8
:104660003F331B78022B30D17968FA6813469B00E0
:104670001344DB000B44583300221A607B681B692B
:10468000002B22D17968FA6813469B001344DB00A3
:104690000B445D3303221A70FB685A013B691344D3
:1046A00003F5A0631946FB685A013B69134403F5FF
:1046B000A063DB6843F00203CB607B681B68FA6889
:1046C000D2B21146184606F0E6FEFB685A013B6975
:1046D000134403F5A0631A461023936000BF1837F4
:1046E000BD4680BD80B586B000AF78600B46FB70DC
:1046F0007B681B687B617B693B61FB78FB60FB68C7
:104700005A013B69134403F5A0639B6803F004035B
:10471000042B1AD1FB685A013B69134403F5A063CB
:104720001A4604239360FB685A013B69134403F55E
:10473000A0631946FB685A013B69134403F5A06363
:10474000DB6843F00203CB603CE3FB685A013B6942
:10475000134403F5A0639B6803F02003202B42D190
:10476000FB685A013B69134403F5A0631A462023F2
:1047700093607968FA6813469B001344DB000B448E
:104780003D331B78012B40F01D837968FA6813468E
:104790009B001344DB000B443D3300221A70796800
:1047A000FA6813469B001344DB000B445C3302227F
:1047B0001A70FB685A013B69134403F5A06319465C
:1047C000FB685A013B69134403F5A063DB6843F0BF
:1047D0000203CB607B681B68FA68D2B211461846A8
:1047E00006F059FEEEE2FB685A013B69134403F5FB
:1047F000A0639B6803F04003402B40D17968FA68BE
:1048000013469B001344DB000B445D3304221A70F3
:104810007968FA6813469B001344DB000B443D3370
:1048200001221A707968FA6813469B001344DB0072
:104830000B44583300221A60FB685A013B69134449
:1048400003F5A0631946FB685A013B69134403F55D
:10485000A063DB6843F00203CB607B681B68FA68E7
:10486000D2B21146184606F016FEFB685A013B69A3
:10487000134403F5A0631A4640239360A2E2FB6849
:104880005A013B69134403F5A0639B6803F400736A
:10489000B3F5007F23D1FB685A013B69134403F54C
:1048A000A0631946FB685A013B69134403F5A063F2
:1048B000DB6843F00203CB607B681B68FA68D2B206
:1048C0001146184606F0E7FDFB685A013B691344A0
:1048D00003F5A0631A464FF40073936072E2FB681D
:1048E0005A013B69134403F5A0639B6803F001037D
:1048F000012B36D17968FA6813469B001344DB001C
:104900000B44583300221A60FB685A013B69134478
:1049100003F5A0631946FB685A013B69134403F58C
:10492000A063DB6843F00203CB607B681B68FA6816
:10493000D2B21146184606F0AEFDFB685A013B693B
:10494000134403F5A0631A46012393607968FA685B
:1049500013469B001344DB000B445D3301221A70A5
:1049600030E2FB685A013B69134403F5A0639B687E
:1049700003F00803082B2CD1FB685A013B69134450
:1049800003F5A0631A4608239360FB685A013B694C
:10499000134403F5A0631946FB685A013B691344AD
:1049A00003F5A063DB6843F00203CB607B681B6800
:1049B000FA68D2B21146184606F06DFD7968FA68B9
:1049C00013469B001344DB000B445D3305221A7031
:1049D000F8E1FB685A013B69134403F5A0639B6847
:1049E00003F01003102B56D17968FA6813469B0028
:1049F0001344DB000B44583300221A607968FA68CC
:104A000013469B001344DB000B445D3303221A70F2
:104A10007968FA6813469B001344DB000B443D336E
:104A20001B78002B14D17968FA6813469B00134455
:104A3000DB000B443C331B78002B09D17968FA6802
:104A400013469B001344DB000B443D3301221A70D4
:104A5000FB685A013B69134403F5A0631946FB68E0
:104A60005A013B69134403F5A063DB6843F002037A
:104A7000CB607B681B68FA68D2B21146184606F014
:104A80000AFDFB685A013B69134403F5A0631A460B
:104A90001023936096E1FB685A013B69134403F5C8
:104AA000A0639B6803F08003802B2CD1FB685A0124
:104AB0003B69134403F5A0631946FB685A013B693F
:104AC000134403F5A063DB6843F00203CB607B680B
:104AD0001B68FA68D2B21146184606F0DCFC796809
:104AE000FA6813469B001344DB000B445D33062237
:104AF0001A70FB685A013B69134403F5A0631A4618
:104B0000802393605EE1FB685A013B69134403F51F
:104B1000A0639B6803F48063B3F5806F36D1FB68B4
:104B20005A013B69134403F5A0631946FB685A0117
:104B30003B69134403F5A063DB6843F00203CB60D9
:104B40007B681B68FA68D2B21146184606F0A3FCCF
:104B5000FB685A013B69134403F5A0631A4610230E
:104B60009360FB685A013B69134403F5A0631A463E
:104B70004FF4806393607968FA6813469B0013448E
:104B8000DB000B445D3308221A701BE1FB685A01FD
:104B90003B69134403F5A0639B6803F00203022BF7
:104BA00040F01081FB685A013B69134403F5A06390
:104BB0001946FB685A013B69134403F5A063DB689F
:104BC00023F00203CB607968FA6813469B00134414
:104BD000DB000B445D331B78012B2CD17968FA681C
:104BE00013469B001344DB000B445C3301221A7014
:104BF0007968FA6813469B001344DB000B443F338B
:104C00001B78022B40F0C5807968FA6813469B0038
:104C10001344DB000B4451331B7883F00103D8B2FB
:104C20007968FA6813469B001344DB000B44513348
:104C300002461A70ADE07968FA6813469B00134487
:104C4000DB000B445D331B78032B0AD17968FA68CB
:104C500013469B001344DB000B445C3302221A70A2
:104C600097E07968FA6813469B001344DB000B4415
:104C70005D331B78042B0AD17968FA6813469B00D0
:104C80001344DB000B445C3302221A7081E0796824
:104C9000FA6813469B001344DB000B445D331B781A
:104CA000052B0AD17968FA6813469B001344DB0090
:104CB0000B445C3305221A706BE07968FA6813467E
:104CC0009B001344DB000B445D331B78062B0AD09A
:104CD0007968FA6813469B001344DB000B445D338C
:104CE0001B78082B55D17968FA6813469B0013444A
:104CF000DB000B4458331B68591C7868FA6813466C
:104D00009B001344DB000344583319607968FA6848
:104D100013469B001344DB000B4458331B68032BE2
:104D200014D97968FA6813469B001344DB000B44DE
:104D3000583300221A607968FA6813469B001344BE
:104D4000DB000B445C3304221A7009E07968FA68CE
:104D500013469B001344DB000B445C3302221A70A1
:104D6000FB685A013B69134403F5A0631B68BB60F1
:104D7000BB6823F08043BB60BB6843F00043BB606B
:104D8000FB685A013B69134403F5A0631A46BB68EC
:104D90001360FB685A013B69134403F5A0631A468C
:104DA00002239360FB68D8B27968FA6813469B00C7
:104DB0001344DB000B445C331B781A4601467868C9
:104DC00009F0ECFE00BF1837BD4680BD80B58AB043
:104DD00000AF78607B681B687B627B6A3B627B68A4
:104DE0001B681B6AFB61FB6903F00F03BB61FB6976
:104DF0005B0C03F00F037B61FB691B09C3F30A0320
:104E00003B617B69022B03D0052B00F0828083E09D
:104E10003B69002B7FD07968BA6913469B00134425
:104E2000DB000B4444331B68002B74D07B6818688C
:104E30007968BA6913469B001344DB000B44443382
:104E40001B683A6992B2194605F015FF7968BA698C
:104E500013469B001344DB000B4444331A683B6940
:104E6000D1187868BA6913469B001344DB000344E9
:104E7000443319607968BA6913469B001344DB0018
:104E80000B444C331A683B69D1187868BA691346E9
:104E90009B001344DB0003444C331960BB695A0187
:104EA0003B6A134403F5A0631A691D4B1340002BA2
:104EB00031D0BB695A013B6A134403F5A0631B68F8
:104EC000FB60FB6823F08043FB60FB6843F000431A
:104ED000FB60BB695A013B6A134403F5A0631A46A1
:104EE000FB6813607968BA6913469B001344DB00C2
:104EF0000B4450331B7883F00103D8B27968BA6948
:104F000013469B001344DB000B44503302461A70D7
:104F100001E000BF00E000BF00BF2837BD4680BDF4
:104F20000000F81F80B586B000AF78607B681B6812
:104F30007B617B693B613B6903F588631B68FB60B0
:104F40003B6903F588631B68BB60BB6823F02E03D5
:104F5000BB60FB6803F00203022B13D1FB6803F074
:104F60000103012B0AD17B681B687A681268926979
:104F700022F000529A61786809F0F4FDBB6843F0B2
:104F80000203BB60FB6803F00803082B48D1BB6831
:104F900043F00803BB60FB6803F00403042B29D132
:104FA0007B689B69022B13D1FB6803F4C023B3F524
:104FB000802F06D17B681B680221184605F07CFF14
:104FC00011E07B681B680121184605F075FF0AE0B7
:104FD0007B68DB68032B06D13B6903F580631A46C7
:104FE0004EF660235360786809F0E6FD786809F0B2
:104FF000B9FD15E0786809F0EDFD3B6903F58863BC
:105000001A463B6903F588631B6823F02E0313607F
:105010007B681B687A681268926942F000529A6154
:10502000FB6803F02003202B03D1BB6843F020036F
:10503000BB603B6903F588631A46BB68136000BF19
:105040001837BD4680BD000080B582B000AF7860E3
:105050007B68002B01D101237EE07B6893F841300F
:10506000DBB2002B06D17B68002283F840207868F1
:1050700009F032FA7B68242283F841207B681B68A0
:105080007A681268126822F001021A607B681B6855
:105090007A68526822F070621A617B681B687A68CD
:1050A0001268926822F400429A607B68DB68012BE8
:1050B00007D17B681B687A68926842F400429A6064
:1050C00006E07B681B687A68926842F404429A6042
:1050D0007B68DB68022B04D17B681B684FF400629D
:1050E0005A607B681A687B681B6859681C4B0B43C5
:1050F00053607B681B687A681268D26822F40042A9
:10510000DA607B681B687A6811697A6852691143B2
:105110007A68926912020A43DA607B681B687A68CF
:10512000D1697A68126A0A431A607B681B687A68D8
:105130001268126842F001021A607B6800225A6409
:105140007B68202283F841207B6800221A637B68F9
:10515000002283F84220002318460837BD4680BD50
:105160000080000280B588B002AFF86008461146A2
:105170001A4603467B810B463B811346FB80002386
:105180007B61FB6893F84130DBB2202B40F0098152
:105190003B6A002B02D0BB8C002B01D1012301E123
:1051A000FB6893F84030012B01D10223FAE0FB6841
:1051B000012283F84020FBF705FF78617B690093AB
:1051C000192301224FF40041F86800F0D9FB03468F
:1051D000002B01D00323E5E0FB68212283F8412066
:1051E000FB68402283F84220FB6800225A64FB6877
:1051F0003A6A5A62FB68BA8C5A85FB6800225A6385
:10520000F8883A8979897B690193BB6A00930346E0
:10521000F86800F0D1FA0346002B0FD0FB685B6CF6
:10522000042B05D1FB68002283F840200123B9E05C
:10523000FB68002283F840200323B3E0FB685B8D0A
:105240009BB2FF2B0ED9FB68FF221A85FB681B8DD2
:10525000DAB27989002300934FF08073F86800F088
:10526000A3FC0FE0FB685B8D9AB2FB681A85FB68B4
:105270001B8DDAB27989002300934FF00073F86830
:1052800000F092FC7A69B96AF86800F0B3FB034653
:10529000002B07D0FB685B6C042B01D1012381E05C
:1052A00003237FE0FB681A68FB685B6A581CF96897
:1052B00048621B789362FB685B8D9BB2013B9AB29C
:1052C000FB685A85FB681B8D013B9AB2FB681A8507
:1052D000FB681B8D002B35D1FB685B8D9BB2002BCF
:1052E00030D07B690093BB6A00228021F86800F00F
:1052F00047FB0346002B01D0032353E0FB685B8D83
:105300009BB2FF2B0ED9FB68FF221A85FB681B8D11
:10531000DAB27989002300934FF08073F86800F0C7
:1053200043FC0FE0FB685B8D9AB2FB681A85FB6853
:105330001B8DDAB27989002300934FF00073F8686F
:1053400000F032FCFB685B8D9BB2002B9AD17A692E
:10535000B96AF86800F08EFB0346002B07D0FB68A3
:105360005B6C042B01D101231CE003231AE0FB68D2
:105370001B682022DA61FB681A68FB681B685968A1
:105380000A4B0B405360FB68202283F84120FB68E6
:10539000002283F84220FB68002283F8402000238B
:1053A00000E0022318461837BD4680BD00E800FE25
:1053B00080B588B002AFF860084611461A46034629
:1053C0007B810B463B811346FB8000237B61FB689E
:1053D00093F84130DBB2202B40F007813B6A002B71
:1053E00002D0BB8C002B01D10123FFE0FB6893F8B6
:1053F0004030012B01D10223F8E0FB68012283F841
:105400004020FBF7DFFD78617B69009319230122BF
:105410004FF40041F86800F0B3FA0346002B01D0C6
:105420000323E3E0FB68222283F84120FB6840224B
:1054300083F84220FB6800225A64FB683A6A5A6289
:10544000FB68BA8C5A85FB6800225A63F8883A894F
:1054500079897B690193BB6A00930346F86800F081
:105460000BFA0346002B0FD0FB685B6C042B05D1B5
:10547000FB68002283F840200123B7E0FB6800228C
:1054800083F840200323B1E0FB685B8D9BB2FF2BC8
:105490000ED9FB68FF221A85FB681B8DDAB2798969
:1054A000544B00934FF08073F86800F07DFB0FE0E1
:1054B000FB685B8D9AB2FB681A85FB681B8DDAB2BC
:1054C00079894C4B00934FF00073F86800F06CFB47
:1054D0007B690093BB6A00220421F86800F050FA4F
:1054E0000346002B01D0032380E0FB685B6A591C54
:1054F000FA685162FA681268526AD2B21A70FB688E
:105500001B8D013B9AB2FB681A85FB685B8D9BB2D1
:10551000013B9AB2FB685A85FB681B8D002B35D185
:10552000FB685B8D9BB2002B30D07B690093BB6A1C
:1055300000228021F86800F023FA0346002B01D0F6
:10554000032353E0FB685B8D9BB2FF2B0ED9FB68F6
:10555000FF221A85FB681B8DDAB27989002300933C
:105560004FF08073F86800F01FFB0FE0FB685B8D65
:105570009AB2FB681A85FB681B8DDAB27989002321
:1055800000934FF00073F86800F00EFBFB685B8D32
:105590009BB2002B9CD17A69B96AF86800F06AFA6C
:1055A0000346002B07D0FB685B6C042B01D1012361
:1055B0001CE003231AE0FB681B682022DA61FB6809
:1055C0001A68FB681B6859680B4B0B405360FB68FB
:1055D000202283F84120FB68002283F84220FB68E8
:1055E000002283F84020002300E0022318461837E9
:1055F000BD4680BD0024008000E800FE80B588B074
:1056000002AFF8607A603B600B467B8100237B61D0
:1056100000233B61FB6893F84130DBB2202B40F064
:10562000C480FB681B689B6903F40043B3F5004F1B
:1056300001D10223BAE0FB6893F84030012B01D17D
:105640000223B3E0FB68012283F84020FB68242298
:1056500083F84120FB6800225A64FB681A68FB68E3
:10566000DB68012B05D17B89C3F30901514B0B4347
:1056700004E07B89C3F3090343F420535360FBF731
:10568000A1FC786118E03B68B3F1FF3F14D03B68A0
:10569000002B07D0FBF796FC02467B69D21A3B68C9
:1056A0009A4209D9FB68202283F84120FB68002236
:1056B00083F84020032379E0FB681B689B6903F0B3
:1056C0002003202B0CD0FB681B689B6903F01003A0
:1056D000102B05D0FB6893F84130DBB2A02BD2D160
:1056E000FB681B689B6903F01003102B1AD07B69C1
:1056F00000933B6800222021F86800F041F903463E
:10570000002B01D0032351E0FB681B682022DA61E3
:10571000FB68202283F84120FB68002283F84020A8
:10572000002343E07B6900933B6800222021F86856
:1057300000F026F90346002B01D0032336E0FB6876
:105740001B681022DA61FB681B682022DA613B6962
:105750005A1C3A617A68934218D1FB681B68FA6850
:105760001268526842F480425A607B6900933B6839
:1057700000222021F86800F003F90346002B01D035
:10578000032313E0FB681B682022DA613A697B6817
:105790009A42FFF462AFFB68202283F84120FB6845
:1057A000002283F84020032300E002231846183724
:1057B000BD4680BD0020000280B586B002AFF86013
:1057C000084611461A4603467B810B463B81134629
:1057D000FB80FB88DAB27989264B00934FF0807307
:1057E000F86800F0E1F9FA69B969F86800F002F9BF
:1057F0000346002B07D0FB685B6C042B01D101230F
:1058000034E0032332E0FB88012B05D1FB681B68E1
:105810003A89D2B29A621BE0FB681B683A89120A85
:1058200092B2D2B29A62FA69B969F86800F0E2F805
:105830000346002B07D0FB685B6C042B01D10123CE
:1058400014E0032312E0FB681B683A89D2B29A6223
:10585000FB690093BB6900228021F86800F090F892
:105860000346002B01D0032300E000231846103725
:10587000BD4680BD0020008080B586B002AFF860D4
:10588000084611461A4603467B810B463B81134668
:10589000FB80FB88DAB27989264B00930023F868F5
:1058A00000F082F9FA69B969F86800F0A3F80346D4
:1058B000002B07D0FB685B6C042B01D1012334E083
:1058C000032332E0FB88012B05D1FB681B683A8972
:1058D000D2B29A621BE0FB681B683A89120A92B244
:1058E000D2B29A62FA69B969F86800F083F803469F
:1058F000002B07D0FB685B6C042B01D1012314E063
:10590000032312E0FB681B683A89D2B29A62FB69F2
:105910000093BB6900224021F86800F031F803468B
:10592000002B01D0032300E0002318461037BD46AA
:1059300080BD00BF0020008080B483B000AF7860DD
:105940007B681B689B6903F00203022B03D17B6811
:105950001B6800229A627B681B689B6903F0010345
:10596000012B07D07B681B687A681268926942F045
:1059700001029A6100BF0C37BD465DF8047B704799
:1059800080B584B000AFF860B9603B601346FB712E
:105990001CE03B68B3F1FF3F18D03B68002B07D0F9
:1059A000FBF710FB0246BB69D21A3B689A420DD93D
:1059B000FB68202283F84120FB68002283F8422004
:1059C000FB68002283F8402003230FE0FB681B687C
:1059D0009A69BB681A40BB689A420CBF0123002336
:1059E000DBB21A46FB799A42D3D00023184610370F
:1059F000BD4680BD80B584B000AFF860B9607A6004
:105A00002CE07A68B968F86800F070F80346002B5B
:105A100001D001232AE0BB68B3F1FF3F1ED0BB6871
:105A2000002B07D0FBF7CEFA02467B68D21ABB6880
:105A30009A4213D9FB685B6C43F02002FB685A64FE
:105A4000FB68202283F84120FB68002283F8422073
:105A5000FB68002283F84020032307E0FB681B68F3
:105A60009B6903F00203022BCBD1002318461037A9
:105A7000BD4680BD80B584B000AFF860B9607A6083
:105A800028E07A68B968F86800F030F80346002B1F
:105A900001D0012326E0BB68002B07D0FBF792FA68
:105AA00002467B68D21ABB689A4213D9FB685B6CCA
:105AB00043F02002FB685A64FB68202283F84120EF
:105AC000FB68002283F84220FB68002283F8402014
:105AD000032307E0FB681B689B6903F02003202B6E
